S024000062686F3030385F437573746F6D4C616250726F6A6563745F333238702E7372656303
S11300000C94B9020C94D6020C94D6020C94D60229
S11300100C94D6020C94D6020C94D6020C94D602FC
S11300200C94D6020C94D6020C94D6020C94A20B17
S11300300C94D6020C94D6020C94D6020C94D602DC
S11300400C94D6020C94D6020C94D6020C94D602CC
S11300500C94D6020C94D6020C94D6020C94D602BC
S11300600C94D6020C94D602470D370EFB0FAA0D42
S113007003109310561100000000003E5B4F5B3EDE
S11300803E6B4F6B3E1C3E7C3E1C183C7E3C181C59
S1130090577D571C1C5E7F5E1C00183C1800FFE750
S11300A0C3E7FF0018241800FFE7DBE7FF30483AF6
S11300B0060E2629792926407F050507407F052558
S11300C03F5A3CE73C5A7F3E1C1C08081C1C3E7FE0
S11300D014227F22145F5F005F5F06097F017F00A7
S11300E06689956A606060606094A2FFA2940804C7
S11300F07E040810207E201008082A1C08081C2AE8
S113010008081E101010100C1E0C1E0C30383E383F
S113011030060E3E0E06000000000000005F0000E6
S11301200007000700147F147F14242A7F2A122357
S11301301308646236495620500008070300001C67
S11301402241000041221C002A1C7F1C2A08083E70
S11301500808008070300008080808080000606083
S11301600020100804023E5149453E00427F4000F1
S113017072494949462141494D331814127F1027C9
S1130180454545393C4A4949314121110907364918
S1130190494936464949291E0000140000004034EC
S11301A000000008142241141414141400412214F1
S11301B00802015909063E415D594E7C1211127C18
S11301C07F494949363E414141227F4141413E7F79
S11301D0494949417F090909013E414151737F0859
S11301E008087F00417F41002040413F017F0814FF
S11301F022417F404040407F021C027F7F04081060
S11302007F3E4141413E7F090909063E4151215E3D
S11302107F09192946264949493203017F01033FD1
S11302204040403F1F2040201F3F4038403F631460
S113023008146303047804036159494D43007F4162
S113024041410204081020004141417F040201029F
S113025004404040404000030708002054547840C4
S11302607F284444383844444428384444287F3858
S11302705454541800087E090218A4A49C787F08DA
S113028004047800447D40002040403D007F102855
S1130290440000417F40007C047804787C08040416
S11302A0783844444438FC1824241818242418FCAE
S11302B07C08040408485454542404043F44243C53
S11302C04040207C1C2040201C3C4030403C4428C2
S11302D01028444C9090907C4464544C440008365C
S11302E041000000770000004136080002010204CA
S11302F0023C2623263C1EA1A161123A4040207AEA
S11303003854545559215555794121545478412133
S11303105554784020545579400C1E527212395568
S11303205555593954545459395554545800004565
S11303307C410002457D420001457C40F02924298E
S1130340F0F0282528F07C545545002054547C5462
S11303507C0A097F49324949493232484848323295
S11303604A4848303A4141217A3A42402078009D37
S1130370A0A07D39444444393D4040403D3C24FFE5
S11303802424487E4943662B2FFC2F2BFF0929F692
S113039020C0887E090320545479410000447D41E3
S11303A03048484A32384040227A007A0A0A727D3C
S11303B00D19317D2629292F282629292926304857
S11303C04D4020380808080808080808382F10C8C5
S11303D0ACBA2F102834FA00007B000008142A1449
S11303E02222142A1408AA005500AAAA55AA55AA1A
S11303F0000000FF00101010FF00141414FF001080
S113040010FF00FF1010F010F0141414FC0014146A
S1130410F700FF0000FF00FF1414F404FC14141789
S1130420101F10101F101F1414141F00101010F0B0
S1130430000000001F101010101F10101010F010FA
S1130440000000FF101010101010101010FF10000A
S11304500000FF140000FF00FF00001F1017000041
S1130460FC04F414141710171414F404F40000FF1B
S113047000F714141414141414F700F714141417B4
S11304801410101F101F141414F4141010F010F092
S113049000001F101F0000001F14000000FC1400C7
S11304A000F010F01010FF10FF141414FF141010BB
S11304B0101F00000000F010FFFFFFFFFFF0F0F03E
S11304C0F0F0FFFFFF0000000000FFFF0F0F0F0F11
S11304D00F38444438447C2A2A3E147E020206061D
S11304E0027E027E0263554941633844443C044021
S11304F07E201E2006027E020299A5E7A5991C2AE9
S1130500492A1C4C7201724C304A4D4D30304878A7
S11305104830BC625A463D3E494949007E010101CA
S11305207E2A2A2A2A2A44445F444440514A4440A9
S113053040444A51400000FF0103E080FF000008EE
S1130540086B6B083612362436060F090F060000B6
S113055018180000001010003040FF0101001F01B6
S1130560011E00191D1712003C3C3C3C0000000019
S1130570000011241FBECFEFD8E0DEBFCDBF11E0D5
S1130580A0E0B1E0E8ECFEE202C005900D92A03DCF
S1130590B107D9F728E0A0EDB1E001C01D92A4365F
S11305A0B207E1F70E94B4120C9462170C94000095
S11305B08FEF84B985B1836085B985B1886285B9C7
S11305C080E58CBD81E08DBD87EA91E60197F1F766
S11305D000C000000895299A81EE94E00197F1F794
S11305E000C00000299887E893E10197F1F700C063
S11305F00000299A8BE792E90197F1F700C0000007
S11306000895289A8EBD0DB407FEFDCF089528984D
S11306108EBD0DB407FEFDCF08950E94EB0281E16B
S11306200E9407038BE792E90197F1F700C00000ED
S113063081EB0E94070381E00E9401038CE20E9487
S113064001038DE20E94010382EB0E94070381E013
S11306500E9401038CE20E9401038DE20E940103C7
S113066083EB0E94070381E00E9401038CE20E9455
S113067001038DE20E94010381E00E9401038CE2E8
S11306800E9401038DE20E94010384EB0E94070390
S113069087E00E94010380EC0E94070382EA0E9423
S11306A0010382E00E94010384E80E94010381ECBB
S11306B00E94070385EC0E94010382EC0E94070359
S11306C08AE00E94010380E00E94010383EC0E94FF
S11306D007038AE80E9401038AE20E94010384EC72
S11306E00E9407038AE80E9401038EEE0E94010320
S11306F085EC0E9407038EE00E94010380E20E94C1
S113070007038AE30E94070385E00E94010386E34E
S11307100E94070380EC0E9401038AE20E940703FF
S113072080E00E94010380E00E94010380E00E94B7
S113073001038FE70E9401038BE20E94070380E01C
S11307400E94010380E00E94010380E00E940103F3
S11307508FE90E94010380EE0E9407038FE00E944C
S113076001038AE10E9401038FE00E94010388E1F2
S11307700E9401038FE20E94010388E20E940103A8
S113078080E20E94010382E20E9401038FE10E9441
S113079001038BE10E94010383E20E94010387E3CA
S11307A00E94010380E00E94010387E00E9401038C
S11307B082E00E94010380E10E94010381EE0E9415
S11307C007038FE00E9401038BE10E9401038FE085
S11307D00E94010387E10E94010383E30E94010355
S11307E08CE20E94010389E20E9401038EE20E94CE
S11307F0010380E30E94010380E30E94010389E373
S11308000E9401038FE30E94010380E00E94010320
S113081087E00E94010383E00E94010380E10E94BB
S1130820010389E20E94070387EA91E60197F1F741
S113083000C0000083E10E94070383EC99E0019764
S1130840F1F700C0000008950F931F93CF93DF9337
S1130850082FD62F142FC22F8AE20E94070380E0AC
S11308600E940103802F0E94010380E00E94010383
S1130870812F0E9401038BE20E94070380E00E9403
S113088001038D2F0E94010380E00E9401038C2F3D
S11308900E9401038CE20E940703DF91CF911F9114
S11308A00F910895CF93DF93C82FD92F209113016F
S11308B0215040911401415060E080E00E942404E2
S11308C0289A809114018823E1F08D2F30E040E0D4
S11308D012C08EBD0DB407FEFDCFCEBD0DB407FE14
S11308E0FDCF9F5F20911301921798F33F5F909182
S11308F01401391730F4909113019923B9F3942F0B
S1130900E8CFDF91CF910895CF93DF93C42FD52FF4
S11309109923ECF02091140130E082179307BCF482
S11309207723ACF02091130130E0621773077CF455
S113093021E0260F41E0480F0E942404289ADEBDDE
S11309400DB407FEFDCFCEBD0DB407FEFDCFDF9184
S1130950CF910895EF92FF920F931F93CF93DF935C
S1130960EA0179012091140130E0821793070CF019
S113097041C04091130150E064177507DCF5FC0198
S1130980EC0FFD1F3197E217F3071CF0E901C81BB8
S1130990D90B9B012E0D3F1D21503109241735071A
S11309A01CF07A01E61AF70A2FEF260F2E0D4FEFEF
S11309B0480F4C0F0E942404289A1E141F04D4F4D8
S11309C097015C2F4D2F10C01EBD0DB407FEFDCF47
S11309D00EBD0DB407FEFDCF01970097A9F7215076
S11309E031092115310531F01C161D06C4F7852F78
S11309F0942FEACFDF91CF911F910F91FF90EF9049
S1130A0008952F923F924F925F926F927F928F92AE
S1130A109F92AF92BF92CF92DF92EF92FF920F9389
S1130A201F93CF93DF93CDB7DEB72A970FB6F89411
S1130A30DEBF0FBECDBF390150E09A01220F331F34
S1130A40220F331FD901A40FB51FB887AF8315E058
S1130A50412CE02FF0E0FE83ED83282F30E03A8331
S1130A6029836F01262E312C512EEF81F885E40D58
S1130A70F11DEA58FF4F1491842D90E0AD81BE81A1
S1130A80A89F4001A99F900CB89F900C1124E98164
S1130A90FA818E0E9F1EA12CB12CE12CF12CE80FB3
S1130AA0F91FFC83EB831A870987FA85F0FF15C0C9
S1130AB02985213049F4A301B701620D731D8B818F
S1130AC09C810E94840409C083019601A601B5019A
S1130AD0620D731DC4010E94AA043A8536953A87B3
S1130AE08FEFE81AF80AAC0CBD1CA8E0EA16F10472
S1130AF0E1F6098543945A9409F0B7CF2A960FB6C4
S1130B00F894DEBF0FBECDBFDF91CF911F910F913F
S1130B10FF90EF90DF90CF90BF90AF909F908F9019
S1130B207F906F905F904F903F902F900895AF9279
S1130B30BF92CF92DF92EF92FF920F931F93CF93C6
S1130B40DF93182FD62E7901C02EB02EBB0CB00E19
S1130B50BB0CC42FD52FA12C13C00C2D97016D2DC8
S1130B60812F0E9401051B0DE12FF0E03596409185
S1130B70140150E0E417F5071CF08AE0D80E1A2D92
S1130B8049914111EACFDF91CF911F910F91FF90CD
S1130B90EF90DF90CF90BF90AF900895EF92FF92C7
S1130BA00F931F93CF93DF931092E4011092E3010C
S1130BB01092E201909114019695292F30E0309320
S1130BC0460820934508262F30E030931B052093D8
S1130BD01A0541E458E0E1E2F5E02FEF3FEF3183FD
S1130BE02083338322833496E417F507C1F7A82FB3
S1130BF0B0E01A161B069CF56695C62FD0E0E1E21C
S1130C00F5E020E030E0692F70E0AB01421B530BAC
S1130C1051834083D383C2832F5F3F4F34962A1777
S1130C203B0799F78093E601C1E2D5E0E12CF12C72
S1130C306A817B810FEF10E021E030E041E050E079
S1130C40888199810E94AA048FEFE81AF80A2496F1
S1130C508091E60190E0E816F90654F302C080930F
S1130C60E601DF91CF911F910F91FF90EF900895CE
S1130C70EF92FF920F931F93CF93DF939091140100
S1130C809695292F30E03093480820934708262F63
S1130C9030E03093F2012093F10147E155E0E7EFB2
S1130CA0F1E02FEF3FEF31832083338322833496A7
S1130CB0E417F507C1F7A82FB0E01A161B069CF538
S1130CC06695C62FD0E0E7EFF1E020E030E0692F31
S1130CD070E0AB01421B530B51834083D383C28327
S1130CE02F5F3F4F34962A173B0799F78093E5010E
S1130CF0C7EFD1E0E12CF12C6A817B8100EE17E093
S1130D0021E030E041E050E0888199810E94AA040A
S1130D108FEFE81AF80A24968091E50190E0E8162E
S1130D20F90654F302C08093E501DF91CF911F913E
S1130D300F91FF90EF9008954091E60150E09A01E1
S1130D4021503109F901EE0FFF1FEE0FFF1FEF5D78
S1130D50FA4F608171817093420860934108628107
S1130D6073817093F0016093EF01882309F490C0BC
S1130D7012161306ACF4FA01EE0FFF1FEE0FFF1F5D
S1130D80E75EFA4F4DE155E02081318135832483BC
S1130D9022813381378326833497E417F507A1F73B
S1130DA0823021F118F4813039F008958330D1F183
S1130DB0843009F453C0089580912105909122054F
S1130DC001968F3791052CF490934608809345083B
S1130DD004C01092460810924508809145089091ED
S1130DE04608909322058093210508958091230558
S1130DF09091240501978A3091052CF090931B055E
S1130E0080931A0506C08FE990E090931B058093A8
S1130E101A0580911A0590911B05909324058093DF
S1130E202305089580912305909124050196803A25
S1130E3091052CF490931B0580931A0506C08AE053
S1130E4090E090931B0580931A0580911A05909168
S1130E501B05909324058093230508958091210513
S1130E6090912205019799232CF090934608809342
S1130E70450806C08FE790E09093460880934508A4
S1130E80809145089091460890932205809321050E
S1130E9008954091E50150E09A0121503109F9018A
S1130EA0EE0FFF1FEE0FFF1FE950FE4F60817181AF
S1130EB07093F4016093F301628173817093440829
S1130EC060934308882309F490C012161306ACF407
S1130ED0FA01EE0FFF1FEE0FFF1FE151FE4F43EF2C
S1130EE051E020813181358324832281338137830A
S1130EF026833497E417F507A1F7823021F118F41B
S1130F00813039F008958330D1F1843009F453C02D
S1130F1008958091F7019091F80101968F3791051A
S1130F202CF4909348088093470804C01092480812
S1130F301092470880914708909148089093F801CF
S1130F408093F70108958091F9019091FA01019736
S1130F508A3091052CF09093F2018093F10106C040
S1130F608FE990E09093F2018093F1018091F10177
S1130F709091F2019093FA018093F9010895809180
S1130F80F9019091FA010196803A91052CF490931D
S1130F90F2018093F10106C08AE090E09093F2019F
S1130FA08093F1018091F1019091F2019093FA0103
S1130FB08093F90108958091F7019091F8010197C8
S1130FC099232CF0909348088093470806C08FE734
S1130FD090E0909348088093470880914708909147
S1130FE048089093F8018093F7010895CF93DF9315
S1130FF0E091E601E83C08F088C0A1E0AE0FB0E063
S1131000ED01CC0FDD1FCC0FDD1FC35EDA4F8881ED
S11310109981AA0FBB1FAA0FBB1FAF5DBA4F1196D0
S11310209C938E938A819B8113969C938E931297A3
S1131030A2E0AE0FB0E0ED01CC0FDD1FCC0FDD1F41
S1131040C35EDA4F88819981AA0FBB1FAA0FBB1F09
S1131050AF5DBA4F11969C938E938A819B811396B0
S11310609C938E931297A3E0AE0FB0E0ED01CC0FEA
S1131070DD1FCC0FDD1FC35EDA4F88819981AA0F73
S1131080BB1FAA0FBB1FAF5DBA4F11969C938E93E3
S11310908A819B8113969C938E931297A4E0AE0F42
S11310A0B0E0ED01CC0FDD1FCC0FDD1FC35EDA4FC6
S11310B088819981AA0FBB1FAA0FBB1FAF5DBA4FCE
S11310C011969C938E938A819B8113969C938E9305
S11310D01297EB5FE093E601F0E0DF01AA0FBB1F7C
S11310E0AA0FBB1FA35EBA4F8D919C911197EE0F6F
S11310F0FF1FEE0FFF1FEF5DFA4F9183808312965F
S11311008D919C91139793838283DF91CF9108955E
S11311101F93CF93DF937091E6017330A0F1209178
S11311202105309122054091230550912405C09159
S1131130EC01D091E401E9E2F5E0AFEFB1E062E067
S113114011E0808191812817390731F482819381DC
S11311504817590709F4D12FCC2371F08D919C9134
S113116011972817390741F412968D919C91139782
S11311704817590709F4D12F6F5F349614966717EF
S113118000F3D093E401DF91CF911F910895E09192
S1131190E501E83CE0F4EF5FE093E501F0E0DF0116
S11311A0AA0FBB1FAA0FBB1FAD50BE4F8D919C91C0
S11311B01197EE0FFF1FEE0FFF1FE950FE4F9183B3
S11311C0808312968D919C911397938382830895C3
S11311D01F93CF93DF937091E5017330A0F12091B9
S11311E0F7013091F8014091F9015091FA01C09151
S11311F0EC01D091E401EFEFF1E0A9E2B5E062E0A7
S113120011E0808191812817390731F4828193811B
S11312104817590709F4D12FCC2371F08D919C9173
S113122011972817390741F412968D919C911397C1
S11312304817590709F4D12F6F5F3496149667172E
S113124000F3D093E401DF91CF911F9108959F9211
S1131250AF92BF92CF92DF92EF92FF920F931F93C0
S1131260CF93DF93B0901201BB2009F4D3C0A091B7
S11312702105B0912205E091E8018E2F90E0609164
S1131280230570912405C091E701D0E020E030E00F
S1131290FC01A9014E0F5F1FA417B507A1F46C1739
S11312A07D0789F44B2D50E000E010E09A010E9484
S11312B0AA0481E08093E9010E94F607B09012012C
S11312C0B11061C0A7C02F5F3F4F2B1510F35BC057
S11312D09F012A0F3B1FC217D307A9F4402F512F98
S11312E0CE14DF0481F400E010E0242F352F0E9497
S11312F0AA0481E08093E9010E94F607109112018B
S113130011115BC087C03196EB1510F354C08417DC
S11313109507B9F4F901EA0FFB1FCE17DF0789F42B
S1131320412F50E000E010E09A010E94AA0481E0FD
S11313308093E9010E94F60790901201911052C027
S113134069C02F5F3F4F211710F34AC04A2F5B2F0C
S11313500C171D0791F47F01EC0CFD1CAE14BF04A7
S113136061F400E010E02A2F3B2F0E94AA0481E0E0
S11313708093E9010E94F6074DC021E02E0F3196BB
S1131380291520F347C0C0912105D0912205A091D1
S1131390E8018A2F90E0C0902305D0902405609145
S11313A0E70170E0E0E0F0E0DC010B2D10E07B01F0
S11313B0E00EF11E8DCF10911201809121059091C4
S11313C022054091E80150E0C0912305D091240505
S11313D0A091E7016A2F70E020E030E0DB0197CFB5
S11313E09090120100912105109122058091E8014D
S11313F090E0A0902305B0902405C090E7016C2DE7
S113140070E0E0E0F0E0A92DB0E0EC01CA0FDB1FD2
S11314106B019CCFDF91CF911F910F91FF90EF90C3
S1131420DF90CF90BF90AF909F9008959F92AF921E
S1131430BF92CF92DF92EF92FF920F931F93CF93BD
S1131440DF93B0901201BB2009F4D3C0A091F7013F
S1131450B091F801E091E8018E2F90E06091F901DC
S11314607091FA01C091E701D0E020E030E0FC0186
S1131470A9014E0F5F1FA417B507A1F46C177D07D0
S113148089F44B2D50E000E010E09A010E94AA0478
S113149081E08093E9010E94C708B0901201B11065
S11314A061C0A7C02F5F3F4F2B1510F35BC09F0196
S11314B02A0F3B1FC217D307A9F4402F512FCE1474
S11314C0DF0481F400E010E0242F352F0E94AA04E9
S11314D081E08093E9010E94C70810911201111163
S11314E05BC087C03196EB1510F354C08417950781
S11314F0B9F4F901EA0FFB1FCE17DF0789F4412F76
S113150050E000E010E09A010E94AA0481E0809378
S1131510E9010E94C70890901201911052C069C05D
S11315202F5F3F4F211710F34AC04A2F5B2F0C1730
S11315301D0791F47F01EC0CFD1CAE14BF0461F493
S113154000E010E02A2F3B2F0E94AA0481E0809340
S1131550E9010E94C7084DC021E02E0F31962915DC
S113156020F347C0C091F701D091F801A091E801A0
S11315708A2F90E0C090F901D090FA016091E701C0
S113158070E0E0E0F0E0DC010B2D10E07B01E00E08
S1131590F11E8DCF109112018091F7019091F80105
S11315A04091E80150E0C091F901D091FA01A09175
S11315B0E7016A2F70E020E030E0DB0197CF9090E4
S11315C012010091F7011091F8018091E80190E077
S11315D0A090F901B090FA01C090E7016C2D70E081
S11315E0E0E0F0E0A92DB0E0EC01CA0FDB1F6B01D5
S11315F09CCFDF91CF911F910F91FF90EF90DF90DF
S1131600CF90BF90AF909F9008950F931F939091A8
S1131610ED01892F880F8093E801980F9093E701DB
S1131620893728F086958937E8F78093E801909107
S1131630E701963918F096959093E7019B3018F4DA
S11316409C5E9093E7014091120150E06091E701A4
S113165070E00FEF1FEF9A0190E00E94AA0410922D
S1131660E9011F910F9108950F931F936091230532
S1131670709124050FEF10E021E030E041E050E0EC
S113168080912105909122050E94AA046091EF01A6
S11316907091F00100E010E021E030E041E050E022
S11316A080914108909142080E94AA041F910F91D1
S11316B008950F931F936091F9017091FA0100EE60
S11316C017E021E030E041E050E08091F701909193
S11316D0F8010E94AA04609143087091440800E054
S11316E010E021E030E041E050E08091F30190917E
S11316F0F4010E94AA041F910F9108958BE0809336
S113170081008DE790E0909389008093880082E0C7
S113171080936F00109285001092840080910E01D6
S113172090910F01A0911001B09111018093DD01FE
S11317309093DE01A093DF01B093E0018FB780683E
S11317408FBF08951F920F920FB60F9211248F939B
S11317509F93AF93BF938091DD019091DE01A0919F
S1131760DF01B091E0010197A109B1098093DD0186
S11317709093DE01A093DF01B093E001892B8A2BC3
S11317808B2B99F481E08093E10180910E0190917B
S11317900F01A0911001B09111018093DD0190938C
S11317A0DE01A093DF01B093E001BF91AF919F915F
S11317B08F910F900FBE0F901F9018951092C50037
S11317C089E18093C40088E18093C10086E080931E
S11317D0C2000895E0ECF0E080818823ECF780916A
S11317E0C60008958091C000882354F4A6ECB0E0AC
S11317F0E0ECF0E08C918093D00180818823D4F3D5
S11318000895EAE7F0E0808187608083ACE7B0E088
S11318108C9184648C938C918F778C93ABE7B0E03C
S11318208C91887F8C938081806E808308958091D1
S113183020058130A9F018F0823019F132C080916E
S1131840DB018F5F8093DB01982F90959093DC01EF
S11318508F3F49F51092DA0181E0809320050895C5
S11318608091DA018F5F8093DA01982F909590939D
S1131870DB018F3FC1F41092DC0182E080932005EC
S113188008958091DC018F5F8093DC01982F9095FF
S11318909093DA018F3F39F41092DB011092200506
S11318A00895109220050895AC0160E070E0409323
S11318B00E0150930F016093100170931101409336
S11318C0DD015093DE016093DF017093E00190939A
S11318D00D0180930C010895EF92FF920F93CF9323
S11318E0DF9380916108882319F0813049F044C066
S11318F01092EE011092ED0181E0809361083CC0EA
S11319008091EE018F938091ED018F930F2EF5E17D
S1131910EF2EF1E0FF2EF02DFF92EF92C1E5D8E01B
S1131920DF93CF930E942E1401E020E030E0AE015B
S113193061E081E00E9497058091ED019091EE01B4
S113194001969093EE018093ED019F938F93FF9204
S1131950EF92DF93CF930E942E142FEF30E0AE016D
S113196061E081E00E9497058DB79EB70C960FB693
S1131970F8949EBF0FBE8DBFDF91CF910F91FF9062
S1131980EF9008950F9396B19095892F8F7080935F
S1131990D90139B13095232F2C712093D801882394
S11319A0A9F190FF0CC083E08093D9018091EB01F1
S11319B0823009F441C083E08093EB013DC091FF84
S11319C00BC082E08093D9018091EB018430A1F1B6
S11319D081E08093EB0130C092FF0BC084E08093E0
S11319E0D9018091EB01813039F184E08093EB01DE
S11319F023C093FF21C081E08093D9018091EB0142
S1131A008330D1F082E08093EB0116C0222391F061
S1131A1032FF04C085E08093D9010EC033FF04C0B7
S1131A2086E08093D90108C034FF06C087E0809324
S1131A30D90102C01092D9014091D301405D01E067
S1131A4020E030E061E088E70E9401054091D9017F
S1131A50405D2FEF30E061E088E70E94010580914E
S1131A60D9018093D3010F910895EF92FF920F93C0
S1131A701F93CF93DF938091180590E087309105F1
S1131A8008F043C5FC01EC5CFF4F0C94CA1380E0E2
S1131A9090E00E9452048091E401882309F456C026
S1131AA002E020E038EF48E151E06AE085E00E947E
S1131AB0970501E02FEF30E042E251E06EE18AE069
S1131AC00E9497058091E3011F928F9385E191E035
S1131AD09F938F9381E598E09F938F930E942E1498
S1131AE02FEF30E041E558E06EE184E60E9497056F
S1131AF00F900F900F900F900F900F908091EC012A
S1131B00882321F12FEF30E043E351E062E38AE0E0
S1131B100E9497058091E2011F928F9385E191E0E5
S1131B209F938F9381E598E09F938F930E942E1447
S1131B302FEF30E041E558E062E384E60E94970528
S1131B400F900F900F900F900F900F9083E0809361
S1131B501805DBC48091DC01887F2091DB012C7F98
S1131B6030E0220F331F220F331F220F331F382B75
S1131B708091DA01869586958695282B60911301CC
S1131B8066956A5002E044E451E085E00E949705BE
S1131B9080910901882309F448C060911301669576
S1131BA06A5020EE37E044E451E085E00E94970556
S1131BB0609113016695685F01E02FEF37E04FE411
S1131BC051E08AE00E9497056091130166956C5E6E
S1131BD02FEF3FEF4CE551E085E00E9497056091BF
S1131BE013016695605E2FEF3FEF4EE651E085E00E
S1131BF00E949705609113016695625C2FE130E0C5
S1131C0046E751E085E00E949705609113016695CF
S1131C106A5B8091140186952FE130E04BE851E036
S1131C2089510E9497051092090189B190E080952D
S1131C3090958C709927892B61F486B190E08095FA
S1131C4090958F709927892B21F48091D201882354
S1131C5051F0C1E0C093180580E090E00E94520466
S1131C60C093090152C483E0809318054EC4809147
S1131C700B018823D1F082E390E0A0E0B0E08093F0
S1131C800E0190930F01A0931001B0931101809362
S1131C90DD019093DE01A093DF01B093E001909306
S1131CA00D0180930C0110920B018091DC01887F5F
S1131CB02091DB012C7F30E0220F331F220F331FD2
S1131CC0220F331F382B8091DA01869586958695ED
S1131CD0282B02E044E451E06CE085E00E94970583
S1131CE08091D901823009F408C4843009F066C0B7
S1131CF080910A01811139C1809108018F5F80931D
S1131D00080180FF2EC060911301669501E020E078
S1131D1030E045E951E089E10E9497058091DC01BA
S1131D20887F2091DB012C7F30E0220F331F220FAC
S1131D30331F220F331F382B8091DA018695869545
S1131D408695282B60911301669543EA51E089E159
S1131D500E94970581E08093EC0182E0809318054E
S1131D60D4C360911301669501E020E030E043EABA
S1131D7051E089E10E9497058091DC01887F2091E0
S1131D80DB012C7F30E0220F331F220F331F220F81
S1131D90331F382B8091DA01869586958695282BFA
S1131DA060911301669545E951E089E10E94970528
S1131DB01092EC0182E080931805A7C3813041F0B2
S1131DC0833009F0CEC080910A01882339F0CDC058
S1131DD08091D1018F5F8093D10105C08091D101A1
S1131DE081508093D1018091D101853018F01092F7
S1131DF0D10102C081111FC060911301669570E08A
S1131E00615F7F4F00E010E024E130E042E350E006
S1131E1081E490E00E94AA04609113016695615FD9
S1131E2001E02FEF3FEF4FEA51E081E40E94970574
S1131E3082E0809318058091D1018130F9F460919A
S1131E401301669570E0615F7F4F00E010E024E1CC
S1131E5030E042E350E081E490E00E94AA04609103
S1131E6013016695615F01E02FEF37E046EB51E027
S1131E7081E40E94970582E0809318058091D10146
S1131E808230F9F460911301669570E0615F7F4FD1
S1131E9000E010E024E130E042E350E081E490E02F
S1131EA00E94AA04609113016695615F01E020E03D
S1131EB038EF4DEB51E081E40E94970582E0809376
S1131EC018058091D101833009F04BC06091130152
S1131ED06695615F01E020E030E04DEB51E081E484
S1131EE00E949705609113016695615F2FEF37E0BB
S1131EF049E681E40E940105609113016695615FE2
S1131F0020EE37E04EE68AE40E9401056091130159
S1131F106695615F2FE138EF43E783E50E94010591
S1131F20609113016695615F20EE3FEF41E68BE51A
S1131F300E940105609113016695615F20E038EF0E
S1131F404EE683E60E940105609113016695615F88
S1131F502FEF37E045E68BE60E94010582E080938F
S1131F60180580910A01882381F102E020EE37E010
S1131F7044E451E06CE085E00E9497056091130110
S1131F80669501E02FE138EF45E951E089E10E94CF
S1131F909705609113016695615F2FEF3FEF42EC67
S1131FA051E089E10E949705609113016695615F94
S1131FB02FEF3FEF4FEA51E081E40E949705109222
S1131FC0EC011092D10110920A018091D90185305F
S1131FD029F08091D201853009F097C284E0809382
S1131FE0180580E090E00E94520481E080930A0189
S1131FF080930B018AC28091D901811186C281E04C
S11320008093180582C2E091D101F0E0EC5FFE4FAD
S1132010808190E00E94540C1092EA011092EB012E
S11320208091EC01882309F44EC06091130162533E
S113203082E30E94CE050E94340B609113016E5C12
S113204082E30E9438060E94590B81E08093620863
S1132050809319050E94050B86E0809318058091F2
S1132060E3011F928F930F2EF5E1EF2EF1E0FF2E87
S1132070F02DFF92EF92C1E5D8E0DF93CF930E9459
S11320802E1401E02FEF30E0AE0166E981E00E94FA
S113209097058091E2011F928F93FF92EF92DF9355
S11320A0CF930E942E142FEF30E0AE0166E98EE646
S11320B00E9497058DB79EB70C960FB6F8949EBFF5
S11320C00FBE8DBF2CC06091130182E30E94CE0528
S11320D00E94340B0E94050B8091E3011F928F93A1
S11320E085E191E09F938F9381E598E09F938F938F
S11320F00E942E1401E02FEF30E041E558E066E93C
S113210081E00E94970581E08093620885E08093D6
S113211018050F900F900F900F900F900F9081E083
S113212080930B01F2C18091E401882319F010928D
S11321301805EBC18091E9018823C1F10E94050BC8
S11321408091E3011F928F930F2EF5E1EF2EF1E0C2
S1132150FF2EF02DFF92EF92C1E5D8E0DF93CF93ED
S11321600E942E1401E020E030E0AE0166E981E037
S11321700E9497058091E3018F5F8093E3011F9292
S11321808F93FF92EF92DF93CF930E942E142FEF41
S113219030E0AE0166E981E00E9497058DB79EB7F5
S11321A00C960FB6F8949EBF0FBE8DBF0E942709F0
S11321B08091D901873019F410921805A6C1813095
S11321C021F491E09093D7011AC0823021F491E078
S11321D09093D40114C0833021F491E09093D601FC
S11321E00EC0843021F491E09093D50108C0109280
S11321F0D4011092D5011092D6011092D70190917A
S1132200D201913019F49093D70115C0923021F482
S113221091E09093D4010BC0933021F491E090931A
S1132220D60105C0943019F491E09093D5019091B2
S1132230D701992341F09091EB01933039F192E069
S11322409093EB0123C09091D601992341F0909192
S1132250EB019230D9F093E09093EB0117C0909189
S1132260D401992341F09091EB01943079F091E0FD
S11322709093EB010BC09091D501992339F0909183
S1132280EB01913019F094E09093EB01863011F456
S11322900E94F6078091EB010E949C060E94880828
S11322A08091EB0190E00E94340B2FC18091E401F6
S11322B0882319F01092180528C10E9427098091DB
S11322C0E9018823C1F10E94050B8091E3011F926B
S11322D08F930F2EF5E1EF2EF1E0FF2EF02DFF92FC
S11322E0EF92C1E5D8E0DF93CF930E942E1401E072
S11322F020E030E0AE0166E981E00E94970580911C
S1132300E3018F5F8093E3011F928F93FF92EF921B
S1132310DF93CF930E942E142FEF30E0AE0166E9D5
S113232081E00E9497058DB79EB70C960FB6F8947E
S11323309EBF0FBE8DBF0E94160A8091E9018823BB
S1132340C1F10E94050B8091E2011F928F930F2E21
S1132350F5E1EF2EF1E0FF2EF02DFF92EF92C1E5B3
S1132360D8E0DF93CF930E942E1401E020E030E008
S1132370AE0166E98EE60E9497058091E2018F5FC7
S11323808093E2011F928F93FF92EF92DF93CF939A
S11323900E942E142FEF30E0AE0166E98EE60E9413
S11323A097058DB79EB70C960FB6F8949EBF0FBED7
S11323B08DBF8091D901873019F410921805A5C0FA
S11323C0813019F48093D7011AC0823021F481E05E
S11323D08093D40114C0833021F481E08093D6012A
S11323E00EC0843021F481E08093D50108C010929E
S11323F0D4011092D5011092D6011092D701809188
S1132400D201813089F401E02FEF30E04AEC51E051
S113241068E288E20E9497058091EA01833009F11D
S113242082E08093EA011DC0823041F48091EA0188
S11324308430B9F081E08093EA0113C0833041F421
S11324408091EA01823069F083E08093EA0109C057
S1132450843039F48091EA01813019F084E080936A
S1132460EA018091D701882341F08091EB01833008
S113247039F182E08093EB0123C08091D601882357
S113248041F08091EB018230D9F083E08093EB013D
S113249017C08091D401882341F08091EB018430EE
S11324A079F081E08093EB010BC08091D501882302
S11324B039F08091EB01813019F084E08093EB01D5
S11324C08091D901863011F40E94F6078091EB01C6
S11324D00E949C068091EA010E9449070E94880894
S11324E00E94E8088091EB0190E00E94340B8091F7
S11324F0EA0190E00E94590B08C0809108018F5FA7
S11325008093080180FF2DCCFECBDF91CF911F91EA
S11325100F91FF90EF9008950F938091170581110B
S113252021C08091C0008823ECF40E94EA0B8093C0
S1132530D2010E94F20B40916308405D01E020E06B
S113254030E061E084E60E9401054091D201405DE3
S11325502FEF30E061E084E60E9401058091D20112
S1132560809363080F9108952FEB87E299E021503F
S113257080409040E1F700C000000E94DE0B0E9402
S1132580D80283E690E00E9423140E94010C0E946A
S11325900D0380E090E00E94520417B88FEF88B9D1
S11325A01AB88BB9E7EAF1E63197F1F700C00000F9
S11325B081E090E0A0E0B0E080930E0190930F01E1
S11325C0A0931001B09311018093DD019093DE017B
S11325D0A093DF01B093E0010E947E0B10921805D6
S11325E010926108109217050E94170CC12CD12C6F
S11325F0E12CF12CC0E0D0E00F2EF8E78F2E912CC7
S1132600F02D0F2E66246A94F3E07F2EF02D0F2E0A
S1132610F5E14F2EF1E05F2EF02D0F2EF1E5AF2EF8
S1132620F8E0BF2EF02D42C00E948C120E94C20C12
S1132630C93CD105D8F10E946C0CF4016081718110
S113264080E090E00E94791360931C0570931D054F
S113265080931E0590931F0500E010E02AE030E00F
S113266048E250E061E070E088E290E00E94AA0451
S1132670F40180819181B3010E94B6139F938F93DB
S11326805F924F92BF92AF920E942E1401E02FEFFF
S113269030E0A50161E088E20E9497050F900F9059
S11326A00F900F900F900F90C0E0D0E08091F50153
S11326B09091F6018C159D0510F40E94350D109231
S11326C0D2018091E1018823E1F31092E10180912C
S11326D00C0190910D01E80EF91EC80FD91FC80E08
S11326E0D91E0E94170CFAE0EF16F10408F4A0CFEB
S11326F09BCFE89409C097FB3EF490958095709524
S113270061957F4F8F4F9F4F9923A9F0F92F96E939
S1132710BB279395F695879577956795B795F111AE
S1132720F8CFFAF4BB0F11F460FF1BC06F5F7F4F4B
S11327308F4F9F4F16C0882311F096E911C077235D
S113274021F09EE8872F762F05C0662371F096E866
S1132750862F70E060E02AF09A95660F771F881F35
S1132760DAF7880F9695879597F90895AA1BBB1BEE
S113277051E107C0AA1FBB1FA617B70710F0A61B7D
S1132780B70B881F991F5A95A9F780959095BC019E
S1132790CD010895EE0FFF1F0590F491E02D0994EB
S11327A08F929F92AF92BF92CF92DF92EF92FF925D
S11327B0CF93DF93EC01688179818A819B816115D4
S11327C071058105910521F464E279ED8BE597E0CB
S11327D02DE133EF41E050E00E94C81649015A014F
S11327E09B01AC01A7EAB1E40E94E7166B017C01EE
S11327F0ACEEB4EFA50194010E94F516C60ED71EE7
S1132800E81EF91EF7FE06C081E0C81AD108E108E7
S113281080E8F80AC882D982EA82FB82C6019F77DF
S1132820DF91CF91FF90EF90DF90CF90BF90AF906A
S11328309F908F9008950E94D013089580E091E0B6
S11328400E94D0130895A0E0B0E08093000190931B
S11328500101A0930201B09303010895AEE0B0E03A
S1132860E4E3F4E10C9408170D891E8986E08C8357
S11328701A8309838FEF9FE79E838D83AE01475EA2
S11328805F4F6F89788DCE0101960E945014EF81BD
S1132890F885E00FF11F10822E96E4E00C942417C3
S11328A0ACE0B0E0E6E5F4E10C94FA167C016B01CF
S11328B08A01FC0117821682838181FFBDC1CE018A
S11328C001964C01F7019381F60193FD859193FFE5
S11328D081916F01882309F4ABC1853239F493FDEA
S11328E0859193FF81916F01853229F4B70190E0BE
S11328F00E943816E7CF512C312C20E02032A0F46E
S11329008B3269F030F4803259F0833269F42061FB
S11329102CC08D3239F0803339F4216026C0226016
S1132920246023C0286021C027FD27C030ED380F64
S11329303A3078F426FF06C0FAE05F9E300D112489
S1132940532E13C08AE0389E300D1124332E20629A
S11329500CC08E3221F426FD6BC1206406C08C3677
S113296011F4206802C0883641F4F60193FD859184
S113297093FF81916F018111C1CF982F9F7D955451
S1132980933028F40C5F1F4FFFE3F9830DC08336A7
S113299031F0833771F0833509F05BC022C0F80150
S11329A0808189830E5F1F4F44244394512C54012A
S11329B015C03801F2E06F0E711CF801A080B180DF
S11329C026FF03C0652D70E002C06FEF7FEFC501E5
S11329D02C870E942D162C0183012C852F77222E03
S11329E017C03801F2E06F0E711CF801A080B180AD
S11329F026FF03C0652D70E002C06FEF7FEFC501B5
S1132A002C870E9422162C012C852068222E8301FB
S1132A1023FC1BC0832D90E048165906B0F4B7017F
S1132A2080E290E00E9438163A94F4CFF50127FC36
S1132A30859127FE81915F01B70190E00E943816CD
S1132A4031103A94F1E04F1A51084114510471F7CE
S1132A50E5C0843611F0893639F5F80127FF07C03F
S1132A6060817181828193810C5F1F4F08C06081F6
S1132A707181882777FD8095982F0E5F1F4F2F76E1
S1132A80B22E97FF09C090958095709561957F4F00
S1132A908F4F9F4F2068B22E2AE030E0A4010E949D
S1132AA06A16A82EA81844C0853729F42F7EB22EA2
S1132AB02AE030E025C0F22FF97FBF2E8F36C1F017
S1132AC018F4883579F0B4C0803719F0883721F0CC
S1132AD0AFC02F2F2061B22EB4FE0DC08B2D8460A9
S1132AE0B82E09C024FF0AC09F2F9660B92E06C0D5
S1132AF028E030E005C020E130E002C020E132E00F
S1132B00F801B7FE07C060817181828193810C5FF7
S1132B101F4F06C06081718180E090E00E5F1F4FFF
S1132B20A4010E946A16A82EA818FB2DFF77BF2EB9
S1132B30B6FE0BC02B2D2E7FA51450F4B4FE0AC094
S1132B40B2FC08C02B2D2E7E05C07A2C2B2D03C081
S1132B507A2C01C0752C24FF0DC0FE01EA0DF11D75
S1132B608081803311F4297E09C022FF06C073944A
S1132B70739404C0822F867809F0739423FD13C0E4
S1132B8020FF06C05A2C731418F4530C5718732CD6
S1132B90731468F4B70180E290E02C870E94381621
S1132BA073942C85F5CF731410F4371801C0312CAD
S1132BB024FF12C0B70180E390E02C870E943816EE
S1132BC02C8522FF17C021FF03C088E590E002C0D6
S1132BD088E790E0B7010CC0822F867859F021FD78
S1132BE002C080E201C08BE227FD8DE2B70190E0D4
S1132BF00E943816A51438F4B70180E390E00E94CF
S1132C0038165A94F7CFAA94F401EA0DF11D808185
S1132C10B70190E00E943816A110F5CF332009F4D3
S1132C2051CEB70180E290E00E9438163A94F6CF74
S1132C30F7018681978102C08FEF9FEF2C96E2E126
S1132C400C941617FC010590615070400110D8F7E0
S1132C50809590958E0F9F1F0895FC0161507040E0
S1132C6001900110D8F7809590958E0F9F1F0895BD
S1132C700F931F93CF93DF93182F092FEB018B81B1
S1132C8081FD03C08FEF9FEF20C082FF10C04E81F3
S1132C905F812C813D81421753077CF4E881F981DF
S1132CA09F012F5F3F4F39832883108306C0E88537
S1132CB0F985812F0995892B29F72E813F812F5F73
S1132CC03F4F3F832E83812F902FDF91CF911F9110
S1132CD00F910895FA01AA27283051F1203181F18A
S1132CE0E8946F936E7F6E5F7F4F8F4F9F4FAF4F10
S1132CF0B1E03ED0B4E03CD0670F781F891F9A1F23
S1132D00A11D680F791F8A1F911DA11D6A0F711DD6
S1132D10811D911DA11D20D009F468943F912AE0E2
S1132D20269F11243019305D3193DEF6CF010895CA
S1132D30462F4770405D4193B3E00FD0C9F7F6CFFB
S1132D40462F4F70405D4A3318F0495D31FD4052C3
S1132D50419302D0A9F7EACFB4E0A6959795879559
S1132D6077956795BA95C9F7009761057105089538
S1132D709B01AC010A2E06945795479537952795E4
S1132D80BA95C9F7620F731F841F951FA01D08957C
S1132D90052E97FB1EF400940E94DF1657FD07D002
S1132DA00E94311707FC03D04EF40C94DF165095A3
S1132DB04095309521953F4F4F4F5F4F0895909523
S1132DC08095709561957F4F8F4F9F4F08950E9416
S1132DD05317A59F900DB49F900DA49F800D911D36
S1132DE011240895B7FF0C94E7160E94E716821B7E
S1132DF0930B08952F923F924F925F926F927F921E
S1132E008F929F92AF92BF92CF92DF92EF92FF92F6
S1132E100F931F93CF93DF93CDB7DEB7CA1BDB0BA2
S1132E200FB6F894DEBF0FBECDBF09942A88398847
S1132E3048885F846E847D848C849B84AA84B9844E
S1132E40C884DF80EE80FD800C811B81AA81B9815A
S1132E50CE0FD11D0FB6F894DEBF0FBECDBFED016E
S1132E600895A1E21A2EAA1BBB1BFD010DC0AA1FC7
S1132E70BB1FEE1FFF1FA217B307E407F50720F0DF
S1132E80A21BB30BE40BF50B661F771F881F991F5A
S1132E901A9469F760957095809590959B01AC01A3
S1132EA0BD01CF010895A29FB001B39FC001A39FAC
S1132EB0700D811D1124911DB29F700D811D11246F
S10B2EC0911D0895F894FFCF61
S1132EC8010000003228140501010101010001007C
S1132ED8000005A08025640047414D45204F564514
S1132EE85200506C6179657220312073636F72658A
S1132EF83A2000506C6179657220322073636F72D6
S1132F08653A2000534E414B452047414D45004208
S1132F18793A20427269616E20486F004545313222
S1132F28304220437573746F6D204C616200507297
S1132F386F6A65637400507265737320616E7920DB
S1132F48627574746F6E20746F2000636F6E746999
S1132F586E7565200073696E676C6520706C6179A5
S1132F686572006D756C7469706C61796572006E58
S1132F786F726D616C006D656469756D006661736F
S1132F88740073706565643A200068656C6C6F0042
S9030000FC
