S024000062686F3030385F437573746F6D4C616250726F6A6563745F333238702E7372656303
S11300000C94BA020C94D7020C94D7020C94D70225
S11300100C94D7020C94D7020C94D7020C94D702F8
S11300200C94D7020C94D7020C94D7020C940F0CA6
S11300300C94D7020C94D7020C94D7020C94D702D8
S11300400C94D7020C94D7020C94D7020C94D702C8
S11300500C94D7020C94D7020C94D7020C94D702B8
S11300600C94D7020C94D702B40DA90E6D101C0E7B
S113007075100F11D511051100000000003E5B4FF3
S11300805B3E3E6B4F6B3E1C3E7C3E1C183C7E3CF4
S1130090181C577D571C1C5E7F5E1C00183C180002
S11300A0FFE7C3E7FF0018241800FFE7DBE7FF3092
S11300B0483A060E2629792926407F050507407F00
S11300C005253F5A3CE73C5A7F3E1C1C08081C1C73
S11300D03E7F14227F22145F5F005F5F06097F0169
S11300E07F006689956A606060606094A2FFA29454
S11300F008047E040810207E201008082A1C080822
S11301001C2A08081E101010100C1E0C1E0C30386F
S11301103E3830060E3E0E06000000000000005F70
S113012000000007000700147F147F14242A7F2A8C
S1130130122313086462364956205000080703004E
S1130140001C2241000041221C002A1C7F1C2A089A
S1130150083E0808008070300008080808080000FD
S113016060600020100804023E5149453E00427F71
S1130170400072494949462141494D331814127FC0
S11301801027454545393C4A494931412111090760
S11301903649494936464949291E000014000000E1
S11301A040340000000814224114141414140041B3
S11301B022140802015909063E415D594E7C121170
S11301C0127C7F494949363E414141227F414141A8
S11301D03E7F494949417F090909013E4141517323
S11301E07F0808087F00417F41002040413F017F94
S11301F0081422417F404040407F021C027F7F045C
S113020008107F3E4141413E7F090909063E4151A4
S1130210215E7F09192946264949493203017F0194
S1130220033F4040403F1F2040201F3F4038403F95
S1130230631408146303047804036159494D4300AB
S11302407F4141410204081020004141417F0402E2
S11302500102044040404040000307080020545479
S113026078407F2844443838444444283844442857
S11302707F385454541800087E090218A4A49C78AA
S11302807F0804047800447D40002040403D007F06
S11302901028440000417F40007C047804787C08E6
S11302A00404783844444438FC18242418182424BA
S11302B018FC7C08040408485454542404043F449F
S11302C0243C4040207C1C2040201C3C4030403CCE
S11302D044281028444C9090907C4464544C44002E
S11302E00836410000007700000041360800020192
S11302F00204023C2623263C1EA1A161123A40407E
S1130300207A3854545559215555794121545478FB
S113031041215554784020545579400C1E52721294
S1130320395555555939545454593955545458001C
S113033000457C410002457D420001457C40F02996
S11303402429F0F0282528F07C54554500205454E5
S11303507C547C0A097F4932494949323248484829
S113036032324A4848303A4141217A3A4240207870
S1130370009DA0A07D39444444393D4040403D3C6B
S113038024FF2424487E4943662B2FFC2F2BFF098E
S113039029F620C0887E0903205454794100004482
S11303A07D413048484A32384040227A007A0A0A6D
S11303B0727D0D19317D2629292F282629292926E0
S11303C030484D4020380808080808080808382F25
S11303D010C8ACBA2F102834FA00007B00000814AF
S11303E02A142222142A1408AA005500AAAA55AADB
S11303F055AA000000FF00101010FF00141414FF91
S1130400001010FF00FF1010F010F0141414FC0082
S11304101414F700FF0000FF00FF1414F404FC148C
S11304201417101F10101F101F1414141F00101085
S113043010F0000000001F101010101F10101010FA
S1130440F010000000FF101010101010101010FF1A
S113045010000000FF140000FF00FF00001F101731
S11304600000FC04F414141710171414F404F4001A
S113047000FF00F714141414141414F700F71414E0
S113048014171410101F101F141414F4141010F067
S113049010F000001F101F0000001F14000000FCDB
S11304A0140000F010F01010FF10FF141414FF14C7
S11304B01010101F00000000F010FFFFFFFFFFF0FE
S11304C0F0F0F0F0FFFFFF0000000000FFFF0F0F4F
S11304D00F0F0F38444438447C2A2A3E147E02020B
S11304E00606027E027E0263554941633844443C59
S11304F004407E201E2006027E020299A5E7A599EB
S11305001C2A492A1C4C7201724C304A4D4D303021
S113051048784830BC625A463D3E494949007E010C
S113052001017E2A2A2A2A2A44445F444440514A2B
S1130530444040444A51400000FF0103E080FF0072
S11305400008086B6B083612362436060F090F06AE
S1130550000018180000001010003040FF010100D6
S11305601F01011E00191D1712003C3C3C3C0000F9
S11305700000000011241FBECFEFD8E0DEBFCDBFC6
S113058011E0A0E0B1E0ECEFFEE202C005900D92B4
S1130590AA3CB107D9F728E0AAECB1E001C01D924A
S11305A0AC35B207E1F70E942E130C947C170C941F
S11305B000008FEF84B985B1836085B985B1886205
S11305C085B980E58CBD81E08DBD87EA91E6019710
S11305D0F1F700C000000895299A81EE94E0019794
S11305E0F1F700C00000299887E893E10197F1F73B
S11305F000C00000299A8BE792E90197F1F700C047
S113060000000895289A8EBD0DB407FEFDCF08950D
S113061028988EBD0DB407FEFDCF08950E94EC020C
S113062081E10E9408038BE792E90197F1F700C08A
S1130630000081EB0E94080381E00E9402038CE227
S11306400E9402038DE20E94020382EB0E940803CF
S113065081E00E9402038CE20E9402038DE20E9468
S1130660020383EB0E94080381E00E9402038CE2F0
S11306700E9402038DE20E94020381E00E940203B1
S11306808CE20E9402038DE20E94020384EB0E942A
S1130690080387E00E94020380EC0E94080382EAB8
S11306A00E94020382E00E94020384E80E94020383
S11306B081EC0E94080385EC0E94020382EC0E94F4
S11306C008038AE00E94020380E00E94020383EC94
S11306D00E9408038AE80E9402038AE20E9402033D
S11306E084EC0E9408038AE80E9402038EEE0E94B2
S11306F0020385EC0E9408038EE00E94020380E25C
S11307000E9408038AE30E94080385E00E94020312
S113071086E30E94080380EC0E9402038AE20E949E
S1130720080380E00E94020380E00E94020380E04C
S11307300E9402038FE70E9402038BE20E940803D7
S113074080E00E94020380E00E94020380E00E9495
S113075002038FE90E94020380EE0E9408038FE0E7
S11307600E9402038AE10E9402038FE00E940203B6
S113077088E10E9402038FE20E94020388E20E9441
S1130780020380E20E94020382E20E9402038FE1DC
S11307900E9402038BE10E94020383E20E9402038F
S11307A087E30E94020380E00E94020387E00E9424
S11307B0020382E00E94020380E10E94020381EEB0
S11307C00E9408038FE00E9402038BE10E9402034F
S11307D08FE00E94020387E10E94020383E30E94E8
S11307E002038CE20E94020389E20E9402038EE269
S11307F00E94020380E30E94020380E30E9402033A
S113080089E30E9402038FE30E94020380E00E94B6
S1130810020387E00E94020383E00E94020380E156
S11308200E94020389E20E94080387EA91E6019785
S1130830F1F700C0000083E10E94080383EC99E013
S11308400197F1F700C0000008950F931F93CF9311
S1130850DF93082FD62F142FC22F8AE20E94080399
S113086080E00E940203802F0E94020380E00E9425
S11308700203812F0E9402038BE20E94080380E09E
S11308800E9402038D2F0E94020380E00E94020353
S11308908C2F0E9402038CE20E940803DF91CF9107
S11308A01F910F910895CF93DF93C82FD92F2091D3
S11308B01301215040911401415060E080E00E94F6
S11308C02504289A809114018823E1F08D2F30E0CB
S11308D040E012C08EBD0DB407FEFDCFCEBD0DB4F9
S11308E007FEFDCF9F5F20911301921798F33F5F9E
S11308F090911401391730F4909113019923B9F3AD
S1130900942FE8CFDF91CF910895CF93DF93C42F35
S1130910D52F9923ECF02091140130E0821793072E
S1130920BCF47723ACF02091130130E06217730715
S11309307CF421E0260F41E0480F0E942504289A08
S1130940DEBD0DB407FEFDCFCEBD0DB407FEFDCF59
S1130950DF91CF910895EF92FF920F931F93CF935E
S1130960DF93EA0179012091140130E082179307A3
S11309700CF041C04091130150E064177507DCF599
S1130980FC01EC0FFD1F3197E217F3071CF0E9019E
S1130990C81BD90B9B012E0D3F1D21503109241773
S11309A035071CF07A01E61AF70A2FEF260F2E0DF1
S11309B04FEF480F4C0F0E942504289A1E141F0461
S11309C0D4F497015C2F4D2F10C01EBD0DB407FE4B
S11309D0FDCF0EBD0DB407FEFDCF01970097A9F71B
S11309E0215031092115310531F01C161D06C4F7BB
S11309F0852F942FEACFDF91CF911F910F91FF9014
S1130A00EF9008952F923F924F925F926F927F9250
S1130A108F929F92AF92BF92CF92DF92EF92FF920A
S1130A200F931F93CF93DF93CDB7DEB72A970FB6FB
S1130A30F894DEBF0FBECDBF390150E09A01220FFA
S1130A40331F220F331FD901A40FB51FB887AF83FB
S1130A5015E0412CE02FF0E0FE83ED83282F30E0F9
S1130A603A8329836F01262E312C512EEF81F8858C
S1130A70E40DF11DE858FF4F1491842D90E0AD81F1
S1130A80BE81A89F4001A99F900CB89F900C11248F
S1130A90E981FA818E0E9F1EA12CB12CE12CF12C40
S1130AA0E80FF91FFC83EB831A870987FA85F0FFA7
S1130AB015C02985213049F4A301B701620D731DC6
S1130AC08B819C810E94850409C083019601A60143
S1130AD0B501620D731DC4010E94AB043A853695BD
S1130AE03A878FEFE81AF80AAC0CBD1CA8E0EA16A6
S1130AF0F104E1F6098543945A9409F0B7CF2A9694
S1130B000FB6F894DEBF0FBECDBFDF91CF911F911A
S1130B100F91FF90EF90DF90CF90BF90AF909F9098
S1130B208F907F906F905F904F903F902F9008959B
S1130B30AF92BF92CF92DF92EF92FF920F931F93E7
S1130B40CF93DF93182FD62E7901C02EB02EBB0C75
S1130B50B00EBB0CC42FD52FA12C13C00C2D9701A4
S1130B606D2D812F0E9402051B0DE12FF0E03596BB
S1130B704091140150E0E417F5071CF08AE0D80E08
S1130B801A2D49914111EACFDF91CF911F910F9115
S1130B90FF90EF90DF90CF90BF90AF900895EF92C9
S1130BA0FF920F931F93CF93DF931092DE01109265
S1130BB0DD011092DC01909114019695292F30E00B
S1130BC030933E0820933D08262F30E030931505DE
S1130BD02093140549E358E0E9E1F5E02FEF3FEFF6
S1130BE031832083338322833496E417F507C1F7D6
S1130BF0A82FB0E01A161B069CF56695C62FD0E008
S1130C00E9E1F5E020E030E0692F70E0AB01421B40
S1130C10530B51834083D383C2832F5F3F4F34965A
S1130C202A173B0799F78093E001C9E1D5E0E12C4D
S1130C30F12C6A817B810FEF10E021E030E041E08C
S1130C4050E0888199810E94AB048FEFE81AF80A7A
S1130C5024968091E00190E0E816F90654F302C06E
S1130C608093E001DF91CF911F910F91FF90EF905E
S1130C700895EF92FF920F931F93CF93DF93909178
S1130C8014019695292F30E03093400820933F08B3
S1130C90262F30E03093EC012093EB0141E155E045
S1130CA0E1EFF1E02FEF3FEF3183208333832283A1
S1130CB03496E417F507C1F7A82FB0E01A161B06FF
S1130CC09CF56695C62FD0E0E1EFF1E020E030E03E
S1130CD0692F70E0AB01421B530B51834083D383D4
S1130CE0C2832F5F3F4F34962A173B0799F78093AF
S1130CF0DF01C1EFD1E0E12CF12C6A817B8100EEB0
S1130D0017E021E030E041E050E0888199810E94C1
S1130D10AB048FEFE81AF80A24968091DF0190E083
S1130D20E816F90654F302C08093DF01DF91CF91F6
S1130D301F910F91FF90EF9008954091E00150E0D2
S1130D409A0121503109F901EE0FFF1FEE0FFF1F29
S1130D50E75EFA4F6081718170933A0860933908B5
S1130D60628173817093EA016093E901882309F435
S1130D7090C012161306ACF4FA01EE0FFF1FEE0F2B
S1130D80FF1FEF5EFA4F45E155E020813181358345
S1130D90248322813381378326833497E417F5072C
S1130DA0A1F7823021F118F4813039F008958330AD
S1130DB0D1F1843009F453C00895809119059091BC
S1130DC01A0501968F3791052CF490933E08809371
S1130DD03D0804C010923E0810923D0880913D08E1
S1130DE090913E0890931A05809319050895809177
S1130DF01B0590911C0501978A3091052CF0909366
S1130E0015058093140506C08FE990E090931505AD
S1130E1080931405809114059091150590931C05F9
S1130E2080931B05089580911B0590911C050196E4
S1130E30803A91052CF4909315058093140506C00F
S1130E408AE090E090931505809314058091140531
S1130E509091150590931C0580931B05089580912E
S1130E60190590911A05019799232CF090933E0847
S1130E7080933D0806C08FE790E090933E088093EE
S1130E803D0880913D0890913E0890931A05809307
S1130E90190508954091DF0150E09A01215031096C
S1130EA0F901EE0FFF1FEE0FFF1FEF50FE4F6081A1
S1130EB071817093EE016093ED016281738170938F
S1130EC03C0860933B08882309F490C0121613066B
S1130ED0ACF4FA01EE0FFF1FEE0FFF1FE751FE4FB8
S1130EE04DEE51E020813181358324832281338189
S1130EF0378326833497E417F507A1F7823021F16D
S1130F0018F4813039F008958330D1F1843009F434
S1130F1053C008958091F1019091F20101968F37A9
S1130F2091052CF49093400880933F0804C01092DC
S1130F30400810923F0880913F0890914008909398
S1130F40F2018093F10108958091F3019091F401ED
S1130F5001978A3091052CF09093EC018093EB017A
S1130F6006C08FE990E09093EC018093EB018091AF
S1130F70EB019091EC019093F4018093F3010895B7
S1130F808091F3019091F4010196803A91052CF43B
S1130F909093EC018093EB0106C08AE090E090937B
S1130FA0EC018093EB018091EB019091EC01909323
S1130FB0F4018093F30108958091F1019091F2017D
S1130FC0019799232CF09093400880933F0806C022
S1130FD08FE790E09093400880933F0880913F080A
S1130FE0909140089093F2018093F1010895CF937A
S1130FF0DF93E091E001E83C08F088C0A1E0AE0F87
S1131000B0E0ED01CC0FDD1FCC0FDD1FCB5EDA4F5E
S113101088819981AA0FBB1FAA0FBB1FA75EBA4F75
S113102011969C938E938A819B8113969C938E93A5
S11310301297A2E0AE0FB0E0ED01CC0FDD1FCC0F94
S1131040DD1FCB5EDA4F88819981AA0FBB1FAA0FDF
S1131050BB1FA75EBA4F11969C938E938A819B8186
S113106013969C938E931297A3E0AE0FB0E0ED011C
S1131070CC0FDD1FCC0FDD1FCB5EDA4F8881998149
S1131080AA0FBB1FAA0FBB1FA75EBA4F11969C9352
S11310908E938A819B8113969C938E931297A4E0DE
S11310A0AE0FB0E0ED01CC0FDD1FCC0FDD1FCB5E2A
S11310B0DA4F88819981AA0FBB1FAA0FBB1FA75EB5
S11310C0BA4F11969C938E938A819B8113969C931D
S11310D08E931297EB5FE093E001F0E0DF01AA0F3B
S11310E0BB1FAA0FBB1FAB5EBA4F8D919C9111978A
S11310F0EE0FFF1FEE0FFF1FE75EFA4F9183808311
S113110012968D919C91139793838283DF91CF9153
S113111008951F93CF93DF937091E0017330A0F192
S11311202091190530911A0540911B0550911C0519
S1131130C091E601D091DE01E1E2F5E0A9EFB1E072
S113114062E011E0808191812817390731F48281AE
S113115093814817590709F4D12FCC2371F08D914D
S11311609C9111972817390741F412968D919C91FF
S113117013974817590709F4D12F6F5F34961496C3
S1131180671700F3D093DE01DF91CF911F9108958B
S1131190CF93DF93E091DF01E83C08F08BC0EF5F71
S11311A0E093DF01F0E0DF01AA0FBB1FAA0FBB1F12
S11311B0A351BE4F8D919C911197EE0FFF1FEE0F1F
S11311C0FF1FEF50FE4F9183808312968D919C9167
S11311D0139793838283E091E001A1E0AE0FB0E026
S11311E0ED01CC0FDD1FCC0FDD1FCB5EDA4F888104
S11311F09981AA0FBB1FAA0FBB1FA75EBA4F1196F6
S11312009C938E938A819B8113969C938E931297C1
S1131210A2E0AE0FB0E0ED01CC0FDD1FCC0FDD1F5F
S1131220CB5EDA4F88819981AA0FBB1FAA0FBB1F1F
S1131230A75EBA4F11969C938E938A819B811396D5
S11312409C938E931297A3E0AE0FB0E0ED01CC0F08
S1131250DD1FCC0FDD1FCB5EDA4F88819981AA0F89
S1131260BB1FAA0FBB1FA75EBA4F11969C938E9308
S11312708A819B8113969C938E931297EC5FE093E3
S1131280E001F0E0DF01AA0FBB1FAA0FBB1FAB5E9A
S1131290BA4F8D919C911197EE0FFF1FEE0FFF1F18
S11312A0E75EFA4F9183808312968D919C911397F8
S11312B093838283DF91CF9108951F93CF93DF931C
S11312C07091DF017330A0F12091F1013091F201AE
S11312D04091F3015091F401C091E601D091DE01F7
S11312E0E9EFF1E0A1E2B5E062E011E080819181F3
S11312F02817390731F4828193814817590709F473
S1131300D12FCC2371F08D919C9111972817390717
S113131041F412968D919C9113974817590709F43B
S1131320D12F6F5F34961496671700F3D093DE01C4
S1131330DF91CF911F9108959F92AF92BF92CF9268
S1131340DF92EF92FF920F931F93CF93DF93B090AE
S11313501201BB2009F4CBC0A0911905B0911A0564
S1131360E091E2018E2F90E060911B0570911C05C5
S1131370C091E101D0E020E030E0FC01A9014E0F72
S11313805F1FA417B50791F46C177D0779F44B2DF3
S113139050E000E010E09A010E94AB0481E08093E9
S11313A0E301B0901201B1105BC0A1C02F5F3F4FA9
S11313B02B1520F355C09F012A0F3B1FC217D307DB
S11313C099F4402F512FCE14DF0471F400E010E0A3
S11313D0242F352F0E94AB0481E08093E301109108
S11313E01201111157C083C03196EB1520F350C080
S11313F084179507A9F4F901EA0FFB1FCE17DF073D
S113140079F4412F50E000E010E09A010E94AB040F
S113141081E08093E30190901201911050C067C065
S11314202F5F3F4F211720F348C04A2F5B2F0C1723
S11314301D0781F47F01EC0CFD1CAE14BF0451F4B4
S113144000E010E02A2F3B2F0E94AB0481E0809340
S1131450E3014DC021E02E0F3196291530F347C02A
S1131460C0911905D0911A05A091E2018A2F90E04C
S1131470C0901B05D0901C056091E10170E0E0E094
S1131480F0E0DC010B2D10E07B01E00EF11E93CFA8
S1131490109112018091190590911A054091E20171
S11314A050E0C0911B05D0911C05A091E1016A2F69
S11314B070E020E030E0DB019BCF909012010091BE
S11314C0190510911A058091E20190E0A0901B0586
S11314D0B0901C05C090E1016C2D70E0E0E0F0E0FC
S11314E0A92DB0E0EC01CA0FDB1F6B019ECFDF9189
S11314F0CF911F910F91FF90EF90DF90CF90BF900D
S1131500AF909F9008959F92AF92BF92CF92DF9237
S1131510EF92FF920F931F93CF93DF93B09012013A
S1131520BB2009F4D3C0A091F101B091F201E09184
S1131530E2018E2F90E06091F3017091F401C0916B
S1131540E101D0E020E030E0FC01A9014E0F5F1F73
S1131550A417B507A1F46C177D0789F44B2D50E04F
S113156000E010E09A010E94AB0481E08093E30163
S11315700E94C808B0901201B11061C0A7C02F5FCB
S11315803F4F2B1510F35BC09F012A0F3B1FC2175F
S1131590D307A9F4402F512FCE14DF0481F400E0C7
S11315A010E0242F352F0E94AB0481E08093E301E7
S11315B00E94C8081091120111115BC087C03196B6
S11315C0EB1510F354C084179507B9F4F901EA0F29
S11315D0FB1FCE17DF0789F4412F50E000E010E035
S11315E09A010E94AB0481E08093E3010E94C80841
S11315F090901201911052C069C02F5F3F4F211784
S113160010F34AC04A2F5B2F0C171D0791F47F017A
S1131610EC0CFD1CAE14BF0461F400E010E02A2FB2
S11316203B2F0E94AB0481E08093E3010E94C80831
S11316304DC021E02E0F3196291520F347C0C091EB
S1131640F101D091F201A091E2018A2F90E0C090C3
S1131650F301D090F4016091E10170E0E0E0F0E08A
S1131660DC010B2D10E07B01E00EF11E8DCF1091FB
S113167012018091F1019091F2014091E20150E058
S1131680C091F301D091F401A091E1016A2F70E0BF
S113169020E030E0DB0197CF909012010091F1013E
S11316A01091F2018091E20190E0A090F301B090DA
S11316B0F401C090E1016C2D70E0E0E0F0E0A92DB0
S11316C0B0E0EC01CA0FDB1F6B019CCFDF91CF911F
S11316D01F910F91FF90EF90DF90CF90BF90AF904C
S11316E09F9008950F931F939091E701892F880F7E
S11316F08093E201980F9093E101893728F0869551
S11317008937E8F78093E2019091E101963918F066
S113171096959093E1019B3018F49C5E9093E101BF
S11317204091120150E06091E10170E00FEF1FEF72
S11317309A0190E00E94AB041092E3011F910F9173
S113174008950F931F9360911B0570911C050FEF73
S113175010E021E030E041E050E0809119059091E3
S11317601A050E94AB046091E9017091EA0100E05E
S113177010E021E030E041E050E0809139089091A0
S11317803A080E94AB041F910F9108950F931F9381
S11317906091F3017091F40100EE17E021E030E074
S11317A041E050E08091F1019091F2010E94AB047C
S11317B060913B0870913C0800E010E021E030E0CB
S11317C041E050E08091ED019091EE010E94AB0464
S11317D01F910F9108958BE0809381008DE790E035
S11317E0909389008093880082E080936F00109228
S11317F085001092840080910E0190910F01A091B8
S11318001001B09111018093D7019093D801A09356
S1131810D901B093DA018FB780688FBF08951F9202
S11318200F920FB60F9211248F939F93AF93BF9390
S11318308091D7019091D801A091D901B091DA019A
S11318400197A109B1098093D7019093D801A0937E
S1131850D901B093DA01892B8A2B8B2B99F481E07F
S11318608093DB0180910E0190910F01A0911001F2
S1131870B09111018093D7019093D801A093D9011D
S1131880B093DA01BF91AF919F918F910F900FBEEA
S11318900F901F9018951092C50089E18093C400A1
S11318A088E18093C10086E08093C2000895E0EC53
S11318B0F0E080818823ECF78091C6000895809140
S11318C0C000882354F4A6ECB0E0E0ECF0E08C9186
S11318D08093CA0180818823D4F30895EAE7F0E075
S11318E0808187608083ACE7B0E08C9184648C93C2
S11318F08C918F778C93ABE7B0E08C91887F8C933D
S11319008081806E80830895809118058130A9F0CC
S113191018F0823019F132C08091D5018F5F809325
S1131920D501982F90959093D6018F3F49F5109249
S1131930D40181E08093180508958091D4018F5FCC
S11319408093D401982F90959093D5018F3FC1F443
S11319501092D60182E08093180508958091D601F3
S11319608F5F8093D601982F90959093D4018F3FE9
S113197039F41092D50110921805089510921805A3
S11319800895AC0160E070E040930E0150930F01A4
S113199060931001709311014093D7015093D801C3
S11319A06093D9017093DA0190930D0180930C0137
S11319B00895EF92FF920F93CF93DF93809159088C
S11319C0882319F0813049F044C01092E801109244
S11319D0E70181E0809359083CC08091E8018F932E
S11319E08091E7018F930F2EF5E1EF2EF1E0FF2EAA
S11319F0F02DFF92EF92C9E4D8E0DF93CF930E94D9
S1131A00481401E020E030E0AE0161E081E00E9492
S1131A1098058091E7019091E80101969093E8017F
S1131A208093E7019F938F93FF92EF92DF93CF937D
S1131A300E9448142FEF30E0AE0161E081E00E9483
S1131A4098058DB79EB70C960FB6F8949EBF0FBE3F
S1131A508DBFDF91CF910F91FF90EF9008950F9379
S1131A6096B19095892F8F708093D30139B13095B9
S1131A70232F2C712093D2018823A9F190FF0CC04D
S1131A8083E08093D3018091E501823009F441C061
S1131A9083E08093E5013DC091FF0BC082E0809319
S1131AA0D3018091E5018430A1F181E08093E501C7
S1131AB030C092FF0BC084E08093D3018091E50194
S1131AC0813039F184E08093E50123C093FF21C084
S1131AD081E08093D3018091E5018330D1F082E0ED
S1131AE08093E50116C0222391F032FF04C085E003
S1131AF08093D3010EC033FF04C086E08093D301EA
S1131B0008C034FF06C087E08093D30102C010925E
S1131B10D3014091CD01405D01E020E030E061E07F
S1131B2088E70E9402054091D301405D2FEF30E029
S1131B3061E088E70E9402058091D3018093CD0182
S1131B400F910895EF92FF920F931F93CF93DF931A
S1131B508091120590E08830910508F050C5FC0191
S1131B60EC5CFF4F0C94E41380E090E00E9453047B
S1131B708091DE01882309F45BC002E020E038EFA5
S1131B8048E151E06AE085E00E94980501E02FEF0A
S1131B9030E042E251E06EE18AE00E9498058091D3
S1131BA0DD011F928F9385E191E09F938F9389E4E8
S1131BB098E09F938F930E9448142FEF30E049E4FC
S1131BC058E06EE184E60E9498050F900F900F9004
S1131BD00F900F900F908091E601882321F12FEF51
S1131BE030E043E351E062E38AE00E94980580918B
S1131BF0DC011F928F9385E191E09F938F9389E499
S1131C0098E09F938F930E9448142FEF30E049E4AB
S1131C1058E062E384E60E9498050F900F900F90BD
S1131C200F900F900F9081E08093090180930A0137
S1131C3083E080931205E3C48091D601887F2091CC
S1131C40D5012C7F30E0220F331F220F331F220FC8
S1131C50331F382B8091D401869586958695282B41
S1131C606091130166956A5002E044E451E085E016
S1131C700E94980580910901882309F448C0609165
S1131C80130166956A5020EE37E044E451E085E0A4
S1131C900E949805609113016695685F01E02FEF3B
S1131CA037E04FE451E08AE00E9498056091130107
S1131CB066956C5E2FEF3FEF4CE551E085E00E94A6
S1131CC09805609113016695605E2FEF3FEF4EE635
S1131CD051E085E00E949805609113016695625C6D
S1131CE02FE130E046E751E085E00E9498056091DD
S1131CF0130166956A5B8091140186952FE130E0AB
S1131D004BE851E089510E9498051092090189B16C
S1131D1090E0809590958C709927892B61F486B119
S1131D2090E0809590958F709927892B21F480916C
S1131D30CC01882351F0C1E0C093120580E090E00B
S1131D400E945304C09309015AC483E0809312058E
S1131D5056C480910B018823D1F082E390E0A0E087
S1131D60B0E080930E0190930F01A0931001B09303
S1131D7011018093D7019093D801A093D901B09316
S1131D80DA0190930D0180930C0110920B01809164
S1131D90D601887F2091D5012C7F30E0220F331F9C
S1131DA0220F331F220F331F382B8091D4018695C5
S1131DB086958695282B02E044E451E06CE085E0AA
S1131DC00E9498058091D301823009F410C48430B4
S1131DD009F066C080910A01811139C1809108011E
S1131DE08F5F8093080180FF2EC060911301669578
S1131DF001E020E030E045E951E089E10E949805E6
S1131E008091D601887F2091D5012C7F30E0220F6C
S1131E10331F220F331F220F331F382B8091D4011D
S1131E20869586958695282B60911301669543EADD
S1131E3051E089E10E94980581E08093E60182E007
S1131E4080931205DCC360911301669501E020E0E4
S1131E5030E043EA51E089E10E9498058091D6017F
S1131E60887F2091D5012C7F30E0220F331F220F71
S1131E70331F220F331F382B8091D401869586950A
S1131E808695282B60911301669545E951E089E117
S1131E900E9498051092E60182E080931205AFC378
S1131EA0813041F0833009F0CEC080910A0188234B
S1131EB039F0CDC08091CB018F5F8093CB0105C0F9
S1131EC08091CB0181508093CB018091CB018530EF
S1131ED018F01092CB0102C081111FC06091130150
S1131EE0669570E0615F7F4F00E010E024E130E030
S1131EF042E350E081E490E00E94AB04609113015E
S1131F006695615F01E02FEF3FEF4FEA51E081E416
S1131F100E94980582E0809312058091CB01813064
S1131F20F9F460911301669570E0615F7F4F00E002
S1131F3010E024E130E042E350E081E490E00E94CC
S1131F40AB04609113016695615F01E02FEF37E008
S1131F5046EB51E081E40E94980582E080931205EB
S1131F608091CB018230F9F460911301669570E0A1
S1131F70615F7F4F00E010E024E130E042E350E095
S1131F8081E490E00E94AB04609113016695615F67
S1131F9001E020E038EF4DEB51E081E40E94980528
S1131FA082E0809312058091CB01833009F04BC00D
S1131FB0609113016695615F01E020E030E04DEB34
S1131FC051E081E40E949805609113016695615F78
S1131FD02FEF37E049E681E40E9402056091130186
S1131FE06695615F20EE37E04EE68AE40E940205C2
S1131FF0609113016695615F2FE138EF43E783E554
S11320000E940205609113016695615F20EE3FEF27
S113201041E68BE50E940205609113016695615FBC
S113202020E038EF4EE683E60E940205609113013A
S11320306695615F2FEF37E045E68BE60E94020567
S113204082E08093120580910A01882381F102E0E5
S113205020EE37E044E451E06CE085E00E9498050E
S113206060911301669501E02FE138EF45E951E0F5
S113207089E10E949805609113016695615F2FEFD5
S11320803FEF42EC51E089E10E9498056091130111
S11320906695615F2FEF3FEF4FEA51E081E40E94C4
S11320A098051092E6011092CB0110920A018091DA
S11320B0D301853029F08091CC01853009F09FC28D
S11320C084E08093120580E090E00E94530481E054
S11320D080930A0180930B0192C28091D3018111F4
S11320E08EC281E0809312058AC2E091CB01F0E0B8
S11320F0EC5FFE4F808190E00E94C10C1092E401DD
S11321001092E5018091E601882309F44EC06091A4
S11321101301625382E30E94CF050E94A10B6091D8
S113212013016E5C82E30E9439060E94C60B81E0B3
S113213080935A08809313050E94720B86E0809363
S113214012058091DD011F928F930F2EF5E1EF2E82
S1132150F1E0FF2EF02DFF92EF92C9E4D8E0DF9377
S1132160CF930E94481401E02FEF30E0AE0166E9FE
S113217081E00E9498058091DC011F928F93FF9269
S1132180EF92DF93CF930E9448142FEF30E0AE011B
S113219066E98EE60E9498058DB79EB70C960FB639
S11321A0F8949EBF0FBE8DBF2CC06091130182E3D3
S11321B00E94CF050E94A10B0E94720B8091DD0149
S11321C01F928F9385E191E09F938F9389E498E028
S11321D09F938F930E94481401E02FEF30E049E46D
S11321E058E066E981E00E94980581E080935A08EE
S11321F085E0809312050F900F900F900F900F9031
S11322000F9081E080930B01FAC10E942F0D809101
S1132210D301873009F0F3C110921205F0C1809107
S1132220DE01882321F087E080931205E8C18091C4
S1132230E3018823D1F10E94720B0E94F707809179
S1132240DD011F928F930F2EF5E1EF2EF1E0FF2EAB
S1132250F02DFF92EF92C9E4D8E0DF93CF930E9470
S1132260481401E020E030E0AE0166E981E00E941C
S113227098058091DD018F5F8093DD011F928F931C
S1132280FF92EF92DF93CF930E9448142FEF30E038
S1132290AE0166E981E00E9498058DB79EB70C9661
S11322A00FB6F8949EBF0FBE8DBF0E949C0980910B
S11322B0D301873019F410921205A1C1813021F4A1
S11322C091E09093D1011AC0823021F491E090936F
S11322D0CE0114C0833021F491E09093D0010EC05C
S11322E0843021F491E09093CF0108C01092CE0184
S11322F01092CF011092D0011092D1019091CC0193
S1132300913019F49093D10115C0923021F491E0E9
S11323109093CE010BC0933021F491E09093D001BF
S113232005C0943019F491E09093CF019091D101BC
S1132330992341F09091E501933039F192E0909323
S1132340E50123C09091D001992341F09091E501DA
S11323509230D9F093E09093E50117C09091CE01AB
S1132360992341F09091E501943079F091E09093B4
S1132370E5010BC09091CF01992339F09091E501CB
S1132380913019F094E09093E501863011F40E94A5
S1132390F7078091E5010E949D060E9489088091BB
S11323A0E50190E00E94A10B2AC18091DE018823FF
S11323B021F087E08093120522C10E949C0980913C
S11323C0E3018823D1F10E94720B0E94F7078091E8
S11323D0DD011F928F930F2EF5E1EF2EF1E0FF2E1A
S11323E0F02DFF92EF92C9E4D8E0DF93CF930E94DF
S11323F0481401E020E030E0AE0166E981E00E948B
S113240098058091DD018F5F8093DD011F928F938A
S1132410FF92EF92DF93CF930E9448142FEF30E0A6
S1132420AE0166E981E00E9498058DB79EB70C96CF
S11324300FB6F8949EBF0FBE8DBF0E94830A809191
S1132440E3018823D1F10E94720B0E94C808809195
S1132450DC011F928F930F2EF5E1EF2EF1E0FF2E9A
S1132460F02DFF92EF92C9E4D8E0DF93CF930E945E
S1132470481401E020E030E0AE0166E98EE60E94F7
S113248098058091DC018F5F8093DC011F928F930C
S1132490FF92EF92DF93CF930E9448142FEF30E026
S11324A0AE0166E98EE60E9498058DB79EB70C963C
S11324B00FB6F8949EBF0FBE8DBF8091D3018730B5
S11324C019F4109212059BC0813021F491E090938D
S11324D0D1011AC0823021F491E09093CE0114C04E
S11324E0833021F491E09093D0010EC0843021F424
S11324F091E09093CF0108C01092CE011092CF01C9
S11325001092D0011092D1019091CC01913041F4FC
S11325109091E401933009F192E09093E4011DC09D
S1132520923041F49091E4019430B9F091E09093A9
S1132530E40113C0933041F49091E401923069F0C6
S113254093E09093E40109C0943039F49091E4014C
S1132550913019F094E09093E4019091D101992382
S113256041F09091E501933039F192E09093E501C7
S113257023C09091D001992341F09091E5019230CC
S1132580D9F093E09093E50117C09091CE0199237F
S113259041F09091E501943079F091E09093E50158
S11325A00BC09091CF01992339F09091E5019130BE
S11325B019F094E09093E501863011F40E94F70736
S11325C08091E5010E949D068091E4010E944A07E2
S11325D00E9489080E945D098091E50190E00E94B3
S11325E0A10B8091E40190E00E94C60B08C0809189
S11325F008018F5F8093080180FF25CCF6CBDF9123
S1132600CF911F910F91FF90EF9008950F938091B8
S11326101105811121C08091C0008823ECF40E942F
S1132620570C8093CC010E945F0C40915B08405D85
S113263001E020E030E061E084E60E940205409180
S1132640CC01405D2FEF30E061E084E60E9402059A
S11326508091CC0180935B080F9108952FEB87E262
S113266099E0215080409040E1F700C000000E94B2
S11326704B0C0E94D90283E690E00E943D140E9414
S11326806E0C0E940E0380E090E00E94530417B881
S11326908FEF88B91AB88BB9E7EAF1E63197F1F709
S11326A000C0000081E090E0A0E0B0E080930E0163
S11326B090930F01A0931001B09311018093D7015F
S11326C09093D801A093D901B093DA010E94EB0B47
S11326D01092120510925908109211050E94840C50
S11326E0C12CD12CE12CF12CC0E0D0E00F2EF8E766
S11326F08F2E912CF02D0F2EF5E16F2EF1E07F2E11
S1132700F02D0F2EF9E4AF2EF8E0BF2EF02D39C0D6
S11327100E9406130E942F0DC93CD10590F10E941E
S1132720D90CF4018081918190931705809316054B
S113273000E010E028E030E048E250E061E070E0C2
S113274088E290E00E94AB048091160590911705F1
S113275049979F938F937F926F92BF92AF920E94FB
S1132760481401E02FEF30E0A50161E088E20E9407
S113277098050F900F900F900F900F900F90C0E05E
S1132780D0E08091EF019091F0018C159D0510F43B
S11327900E94A20D1092CC018091DB018823E1F309
S11327A01092DB0180910C0190910D01E80EF91E4D
S11327B0C80FD91FC80ED91E0E94840CFAE0EF1668
S11327C0F10408F4A9CFA4CFEE0FFF1F0590F491F4
S11327D0E02D09948F929F92AF92BF92CF92DF9295
S11327E0EF92FF92CF93DF93EC01688179818A8124
S11327F09B81611571058105910521F464E279EDF0
S11328008BE597E02DE133EF41E050E00E94E216C2
S113281049015A019B01AC01A7EAB1E40E940117E6
S11328206B017C01ACEEB4EFA50194010E940F177B
S1132830C60ED71EE81EF91EF7FE06C081E0C81AB0
S1132840D108E10880E8F80AC882D982EA82FB82CA
S1132850C6019F77DF91CF91FF90EF90DF90CF90EB
S1132860BF90AF909F908F9008950E94EA130895AF
S113287080E091E00E94EA130895A0E0B0E0809324
S1132880000190930101A0930201B0930301089504
S1132890AEE0B0E0EEE4F4E10C9422170D891E8959
S11328A086E08C831A8309838FEF9FE79E838D8351
S11328B0AE01475E5F4F6F89788DCE0101960E940D
S11328C06A14EF81F885E00FF11F10822E96E4E080
S11328D00C943E17ACE0B0E0E0E7F4E10C9414177C
S11328E07C016B018A01FC0117821682838181FFBE
S11328F0BDC1CE0101964C01F7019381F60193FD10
S1132900859193FF81916F01882309F4ABC18532CE
S113291039F493FD859193FF81916F01853229F4F8
S1132920B70190E00E945216E7CF512C312C20E0E1
S11329302032A0F48B3269F030F4803259F08332C3
S113294069F420612CC08D3239F0803339F4216070
S113295026C02260246023C0286021C027FD27C030
S113296030ED380F3A3078F426FF06C0FAE05F9E67
S1132970300D1124532E13C08AE0389E300D1124DB
S1132980332E20620CC08E3221F426FD6BC12064EC
S113299006C08C3611F4206802C0883641F4F60172
S11329A093FD859193FF81916F018111C1CF982F80
S11329B09F7D9554933028F40C5F1F4FFFE3F983F8
S11329C00DC0833631F0833771F0833509F05BC075
S11329D022C0F801808189830E5F1F4F44244394F1
S11329E0512C540115C03801F2E06F0E711CF8012E
S11329F0A080B18026FF03C0652D70E002C06FEF98
S1132A007FEFC5012C870E9447162C0183012C857A
S1132A102F77222E17C03801F2E06F0E711CF801D7
S1132A20A080B18026FF03C0652D70E002C06FEF67
S1132A307FEFC5012C870E943C162C012C85206851
S1132A40222E830123FC1BC0832D90E048165906D7
S1132A50B0F4B70180E290E00E9452163A94F4CFA9
S1132A60F50127FC859127FE81915F01B70190E074
S1132A700E94521631103A94F1E04F1A5108411451
S1132A80510471F7E5C0843611F0893639F5F8013F
S1132A9027FF07C060817181828193810C5F1F4F82
S1132AA008C060817181882777FD8095982F0E5F1B
S1132AB01F4F2F76B22E97FF09C090958095709581
S1132AC061957F4F8F4F9F4F2068B22E2AE030E0F0
S1132AD0A4010E948416A82EA81844C0853729F49E
S1132AE02F7EB22E2AE030E025C0F22FF97FBF2ED0
S1132AF08F36C1F018F4883579F0B4C0803719F0F6
S1132B00883721F0AFC02F2F2061B22EB4FE0DC044
S1132B108B2D8460B82E09C024FF0AC09F2F9660B5
S1132B20B92E06C028E030E005C020E130E002C044
S1132B3020E132E0F801B7FE07C060817181828133
S1132B4093810C5F1F4F06C06081718180E090E02B
S1132B500E5F1F4FA4010E948416A82EA818FB2DF7
S1132B60FF77BF2EB6FE0BC02B2D2E7FA51450F47D
S1132B70B4FE0AC0B2FC08C02B2D2E7E05C07A2CF0
S1132B802B2D03C07A2C01C0752C24FF0DC0FE012F
S1132B90EA0DF11D8081803311F4297E09C022FFE2
S1132BA006C07394739404C0822F867809F07394DA
S1132BB023FD13C020FF06C05A2C731418F4530CC1
S1132BC05718732C731468F4B70180E290E02C87D3
S1132BD00E94521673942C85F5CF731410F4371891
S1132BE001C0312C24FF12C0B70180E390E02C8790
S1132BF00E9452162C8522FF17C021FF03C088E5CE
S1132C0090E002C088E790E0B7010CC0822F86787C
S1132C1059F021FD02C080E201C08BE227FD8DE264
S1132C20B70190E00E945216A51438F4B70180E36E
S1132C3090E00E9452165A94F7CFAA94F401EA0D38
S1132C40F11D8081B70190E00E945216A110F5CFCA
S1132C50332009F451CEB70180E290E00E9452166D
S1132C603A94F6CFF7018681978102C08FEF9FEFE8
S1132C702C96E2E10C943017FC01059061507040F1
S1132C800110D8F7809590958E0F9F1F0895FC0131
S1132C906150704001900110D8F7809590958E0F87
S1132CA09F1F08950F931F93CF93DF93182F092F1E
S1132CB0EB018B8181FD03C08FEF9FEF20C082FF6A
S1132CC010C04E815F812C813D81421753077CF4F3
S1132CD0E881F9819F012F5F3F4F39832883108357
S1132CE006C0E885F985812F0995892B29F72E815E
S1132CF03F812F5F3F4F3F832E83812F902FDF91A2
S1132D00CF911F910F910895FA01AA27283051F10C
S1132D10203181F1E8946F936E7F6E5F7F4F8F4F08
S1132D209F4FAF4FB1E03ED0B4E03CD0670F781F67
S1132D30891F9A1FA11D680F791F8A1F911DA11D4C
S1132D406A0F711D811D911DA11D20D009F4689485
S1132D503F912AE0269F11243019305D3193DEF62D
S1132D60CF010895462F4770405D4193B3E00FD0E3
S1132D70C9F7F6CF462F4F70405D4A3318F0495DCE
S1132D8031FD4052419302D0A9F7EACFB4E0A695B1
S1132D909795879577956795BA95C9F700976105D3
S1132DA0710508959B01AC010A2E06945795479529
S1132DB037952795BA95C9F7620F731F841F951F1E
S1132DC0A01D0895052E97FB1EF400940E94F91689
S1132DD057FD07D00E944B1707FC03D04EF40C9408
S1132DE0F91650954095309521953F4F4F4F5F4FC1
S1132DF0089590958095709561957F4F8F4F9F4F63
S1132E0008950E946D17A59F900DB49F900DA49FE7
S1132E10800D911D11240895B7FF0C9401170E9491
S1132E200117821B930B08952F923F924F925F924A
S1132E306F927F928F929F92AF92BF92CF92DF92C6
S1132E40EF92FF920F931F93CF93DF93CDB7DEB72B
S1132E50CA1BDB0B0FB6F894DEBF0FBECDBF0994BF
S1132E602A88398848885F846E847D848C849B8416
S1132E70AA84B984C884DF80EE80FD800C811B8124
S1132E80AA81B981CE0FD11D0FB6F894DEBF0FBE53
S1132E90CDBFED010895A1E21A2EAA1BBB1BFD01B3
S1132EA00DC0AA1FBB1FEE1FFF1FA217B307E40725
S1132EB0F50720F0A21BB30BE40BF50B661F771F7D
S1132EC0881F991F1A9469F760957095809590955D
S1132ED09B01AC01BD01CF010895A29FB001B39F36
S1132EE0C001A39F700D811D1124911DB29F700D0F
S10F2EF0811D1124911D0895F894FFCF5A
S1132EFC0100000032281405010101010100010048
S1132F0C000005A08025640047414D45204F5645DF
S1132F1C5200506C6179657220312073636F726555
S1132F2C3A2000506C6179657220322073636F72A1
S1132F3C653A2000534E414B452047414D450042D4
S1132F4C793A20427269616E20486F0045453132EE
S1132F5C304220437573746F6D204C616200507263
S1132F6C6F6A65637400507265737320616E7920A7
S1132F7C627574746F6E20746F2000636F6E746965
S1132F8C6E7565200073696E676C6520706C617971
S1132F9C6572006D756C7469706C61796572006E24
S1132FAC6F726D616C006D656469756D006661733B
S10D2FBC740073706565643A200028
S9030000FC
