S01B0000554152545F333238705F5345434F4E444152592E737265635A
S11300000C9434000C9446000C9446000C94460066
S11300100C9446000C9446000C9446000C94460044
S11300200C9446000C9446000C9446000C94460034
S11300300C9446000C9446000C9446000C94460024
S11300400C9446000C9446000C9446000C94460014
S11300500C9446000C9446000C9446000C94460004
S11300600C9446000C94460011241FBECFEFD8E038
S1130070DEBFCDBF21E0A0E0B1E001C01D92A13000
S1130080B207E1F70E946B000C9486000C94000008
S11300901092C5008CE08093C40088E18093C10075
S11300A086E48093C2000895E0ECF0E0908195FF2F
S11300B0FDCF8093C60008958091C000882354F436
S11300C0A6ECB0E0E0ECF0E08C918093000180813C
S11300D08823D4F308958FEF87B918B80E94480095
S11300E010E0C0ECD0E000E0812F0E945400888131
S11300F086FD0E945C001F5F193008F0102F83EC0E
S113010099E00197F1F700C00000EECFF894FFCF1B
S9030000FC
