S01B0000554152545F333238705F5345434F4E444152592E737265635A
S11300000C9434000C9446000C9446000C94460066
S11300100C9446000C9446000C9446000C94460044
S11300200C9446000C9446000C9446000C94460034
S11300300C9446000C9446000C9446000C94460024
S11300400C9446000C9446000C9446000C94460014
S11300500C9446000C9446000C9446000C94460004
S11300600C9446000C94460011241FBECFEFD8E038
S1130070DEBFCDBF21E0A0E0B1E001C01D92A13000
S1130080B207E1F70E946B000C94B4000C940000DA
S11300901092C5008CE08093C40088E18093C10075
S11300A086E08093C2000895E0ECF0E0908195FF33
S11300B0FDCF8093C60008958091C000882354F436
S11300C0A6ECB0E0E0ECF0E08C918093000180813C
S11300D08823D4F3089517B88FEF88B984B985B904
S11300E01AB88BB90E94480010E0C0ECD0E000E0E0
S11300F086B1809599B185B984FF04C086E00E94D9
S1130100540023C080FF04C083E00E9454001DC03B
S113011081FF04C082E00E94540017C082FF04C023
S113012084E00E94540011C083FF04C081E00E9457
S113013054000BC085FF04C085E00E94540005C034
S113014099231CF087E00E945400888186FD0E9458
S11301505C001F5F193008F0102F83EC99E00197C1
S10F0160F1F700C00000C4CFF894FFCFFA
S9030000FC
